:020000020000FC
:100000000C949B01103009F005C04B3250F446327D
:1000100020F005C0433D28F402C072E0089571E06D
:10002000089570E008950AE90E94FC00703021F004
:10003000713029F0723031F00E94DE0008950E9484
:10004000D10008950E94C400089501E00E94FC00C0
:1000500000E80E94FC000E9481000CE80E94FC0065
:100060000E94940000EC0E94FC000E94650004E9DC
:100070000E94FC000E94520004ED0E94FC000E94BD
:100080004200089504E50E94060105E40E9406016D
:100090000DE40E94060100E50E9406010AE30E94A9
:1000A000060108950CE40E94060109E40E9406017D
:1000B00007E40E94060108E40E94060104E50E948C
:1000C00006010AE30E94060108950DE40E9406015C
:1000D0000FE40E94060109E40E94060103E50E9464
:1000E000060104E50E94060105E50E94060102E5FD
:1000F0000E94060105E40E9406010AE30E9406012F
:10010000089500E50E9406010CE40E94060101E446
:100110000E9406010EE40E94060104E50E94060109
:100120000AE30E94060108950CE70E94060100E51B
:100130000E9406010DE40E94060100E50E940601EE
:100140000AE30E940601089503E40E94060101E605
:100150000E94060103E60E94060104E70E940601D0
:1001600005E70E94060103E70E940601089502E5E3
:100170000E9406010FE60E94060103E70E940601A5
:1001800005E60E940601089508E40E94060109E6BA
:100190000E94060107E60E94060108E60E94060189
:1001A000089507E40E9406010FE60E9406010FE68B
:1001B0000E94060104E60E94060108950CE40E94D4
:1001C00006010FE60E94060107E70E940601089556
:1001D000042FA0E0B0E0C0E0043610F00456C39550
:1001E0000A3018F00A50B395FBCFA02F0895D0E342
:1001F000AD0FBD0FCD0F089502BBA998AA98A89A7C
:1002000000000000A8980E94E701089502BBA99889
:10021000AA9AA89A00000000A8980E94E7010895F1
:10022000433318F04C3438F403C050E061E00895D3
:1002300051E060E0089552E060E008950AEC0E9409
:10024000FC00503019F0513059F01DC004E40E94F8
:10025000060102E50E94060109E50E9406011DC093
:100260000EE40E9406010FE60E94060102E70E94CA
:1002700006010DE60E94060101E60E9406010CE659
:100280000E9406010AC007E50E94060105E40E94DB
:10029000060104E50E94060100C001E90E94FC007D
:1002A000603041F0C09A0FE40E9406010EE40E9403
:1002B00006010895C0980FE40E94060106E40E941A
:1002C000060106E40E940601089509ED0E94FC0063
:1002D0000E94E8000E94F7000C2F0E9406010B2FDD
:1002E0000E9406010A2F0E940601089501E207B943
:1002F00000E806B9089502EE07B903E806B90895C3
:1003000000E607B903E806B908950E94E701369AA6
:10031000349BFECF349A45B10895369A349BFECF74
:10032000349A45B108950E94E701369A349BFECF76
:10033000349A45B1089508E00EBF0FE50DBF0FEFE9
:1003400004BB01BBB89AB99ABA98C098C198D09822
:10035000D298D19808E30E94FC000EE00E94FC00B5
:1003600001E00E94FC000E9425000E94D0010E9432
:1003700076010E9485010E9410010E941E010E94C8
:100380007B010E948D010E9465010E9480010E94F4
:1003900093010E9402000E9413000E94DF01E3CF3C
:1003A00000E806E80E94FC00B29B05C000C01FEFF9
:1003B0000E94A400089510E00E94B70008955030F4
:1003C00011F003C008B3C19A0895C1980895E8ECEC
:1003D000FAE1000000000000EA95D9F7FA95C9F7A4
:0203E00008957E
:00000001FF
